:100000000C9486010C94B3010C94B3010C94B301CD
:100010000C94B3010C94B3010C94B3010C94B30190
:100020000C94B3010C9488210C9488210C948821A1
:100030000C94B3010C94B3010C94B3010C94B30170
:100040000C94B3010C94B3010C94B3010C94B30160
:100050000C94B3010C94B3010C94B3010C943E25A1
:100060000C94B3010C94A4270C94D0280C94B301E5
:100070000C94B3010C94B3010C94B3010C94B30130
:100080000C94B3010C94B3010C94B3010C94B30120
:100090000C94DD270C940F290C94B3010C941005DB
:1000A0000C94B3010C94B3010C94B3010C94B30100
:1000B0000C94B3010C94B3010C94B3010C94B301F0
:1000C0000C94B3010C94B3010C94B3010C94162856
:1000D0000C944E290C94B3010C944F280C948D2948
:1000E0000C94B301005EBCE2613FDD83C29C7E20C4
:1000F000A3FD1F419DC3217FFCA2401E5F01E3BD04
:100100003E6082DC237D9FC1421CFEA0E1BF5D03F7
:1001100080DE3C62BEE0025CDF81633D7C22C09EEB
:100120001D43A1FF4618FAA427799BC584DA3866D7
:10013000E5BB5907DB856739BAE406581947A5FBC3
:100140007826C49A653BD987045AB8E6A7F91B45B7
:10015000C6987A24F8A6441A99C7257B3A6486D8AB
:100160005B05E7B98CD2306EEDB3510F4E10F2AC97
:100170002F7193CD114FADF3702ECC92D38D6F3183
:10018000B2EC0E50AFF1134DCE90722C6D33D18F77
:100190000C52B0EE326C8ED0530DEFB1F0AE4C126B
:1001A00091CF2D73CA947628ABF517490856B4EA57
:1001B0006937D58B5709EBB536688AD495CB297743
:1001C000F4AA4816E9B7550B88D6346A2B7597C937
:1001D0004A14F6A8742AC896154BA9F7B6E80A542B
:1001E000D7896B3500002100240027002A002D004C
:1001F0003000330001010000040107010A01000082
:100200002200250028002B002E00310034000201BE
:100210000000050108010B0100002000230026005A
:1002200029002C002F00320000010000030106010C
:10023000090105050505070508080808020202026C
:100240000A0A080804040404010101010101010172
:100250000303030303030303040707070C0C0C0C3D
:100260000C0C0C0C02020202060606060606060626
:100270000B0B0B0B0B0B0B0B0102102020080810B3
:100280002040102040800201020108040201010206
:1002900004081020408080402010080402018004DF
:1002A000020180402010080402010804020101023A
:1002B0000408102040800102040810204080000043
:1002C000090A02080B0C0D070603040100000000D8
:1002D000000000000000000000000000000000001E
:1002E0000000000000000000000011100F000000DE
:1002F00000000000000000000000000000000000FE
:1003000000000000D60C9324F72ACF0C11241FBE46
:10031000CFEFD1E2DEBFCDBF00E00CBF14E0A0E024
:10032000B2E0EAE2F6E600E00BBF02C007900D92F1
:10033000A83AB107D9F71BBE19E0A8EAB4E001C09A
:100340001D92A83AB107E1F713E0CAE0D3E004C078
:100350002297FE010E94CD32C430D107C9F70E9416
:1003600037300C9408330C940000CF93DF93BC011A
:100370008230910510F462E070E0A091A609B0917E
:10038000A709ED01E0E0F0E040E050E021C0888105
:1003900099818617970769F48A819B81309719F0B4
:1003A0009383828304C09093A7098093A609FE01DA
:1003B00034C06817790738F44115510519F08417CE
:1003C000950708F4AC01FE018A819B819C01E9013B
:1003D0002097E9F641155105A9F1CA01861B970B33
:1003E000049708F4BA01E0E0F0E02AC08D919C91F6
:1003F000119784179507F9F46417750781F412961D
:100400008D919C911397309719F09383828304C048
:100410009093A7098093A609FD0132964CC0CA01AA
:10042000861B970BFD01E80FF91F619371930297EB
:100430008D939C9340C0FD01828193819C01D901E1
:100440001097A1F68091A4099091A509892B41F4F8
:1004500080917304909174049093A5098093A409EA
:1004600040917504509176044115510541F44DB702
:100470005EB78091710490917204481B590B2091D2
:10048000A4093091A509CA01821B930B861797070F
:1004900080F0AB014E5F5F4F8417950750F0420F1D
:1004A000531F5093A5094093A409F90161937193D7
:1004B00002C0E0E0F0E0CF01DF91CF910895CF934B
:1004C000DF93009709F450C0EC0122971B821A8237
:1004D000A091A609B091A709109709F140E050E05A
:1004E000AC17BD0708F1BB83AA83FE0121913191AE
:1004F000E20FF31FAE17BF0779F48D919C9111970E
:10050000280F391F2E5F3F4F3983288312968D9114
:100510009C9113979B838A834115510571F4D09365
:10052000A709C093A60920C012968D919C9113979C
:10053000AD01009711F0DC01D3CFFA01D383C28360
:1005400021913191E20FF31FCE17DF0769F4888103
:100550009981280F391F2E5F3F4FFA013183208385
:100560008A819B8193838283DF91CF910895A0E05C
:10057000B0E0EDEBF2E00C94D3326C01009729F47B
:10058000CB010E94B5016C01C1C08EEF882E8FEFA8
:10059000982E8C0C9D1C8601060F171F0815190537
:1005A00008F4B2C0F401A081B181A617B707B8F072
:1005B000A530B10508F4AAC0CD01049786179707A6
:1005C00008F4A4C01297A61BB70BF801A193B1932E
:1005D000D4016D937C93CF010E945F0297C07B0191
:1005E000EA1AFB0AEEEFFFEFEE0EFF1E36016A0E6F
:1005F0007B1EC091A609D091A70944245524AA24A2
:10060000BB244AC0C615D705E1F5488159814E156E
:100610005F05B8F1CA0104978E159F05B0F41296D4
:10062000A40FB51FF401B183A0832A813B8141143B
:10063000510431F0D20113963C932E93129766C069
:100640003093A7092093A60961C08A819B81F80194
:1006500093838283425050404E195F0951834083F7
:100660004114510431F0D20113961C930E9312974A
:1006700004C01093A7090093A609F4017183608355
:1006800045C088819981A816B90608F45C012E013D
:100690008A819B819C01E901209709F0B3CF809169
:1006A000A4099091A50986159705E9F4A616B70641
:1006B000D0F420917504309176042115310541F470
:1006C0002DB73EB78091710490917204281B390BAD
:1006D00002171307C8F41093A5090093A409D401C5
:1006E0006D937C9313C0CB010E94B501EC01009780
:1006F00059F0F40140815181B6010E94B303C60153
:100700000E945F026E0102C0CC24DD24C601CDB779
:10071000DEB7E0E10C94EF321F93FC0199278827A4
:10072000BC01E89411911032E9F3193010F01E3039
:10073000C8F31B3251F01D3249F4689406C00E9480
:100740001204610F711D811D911D119110531A30FA
:10075000B0F33EF490958095709561957F4F8F4FE3
:100760009F4F1F910895FB01DC0102C001900D9283
:1007700041505040D8F70895FC018191861721F02F
:100780008823D9F7992708953197CF010895FB0160
:10079000DC018D91019080190110D9F3990B089516
:1007A000FB01DC0101900D920020E1F70895FB01AF
:1007B00051915523A9F0BF01DC014D91451741111D
:1007C000E1F759F4CD010190002049F04D91401519
:1007D0004111C9F3FB014111EFCF81E090E0019796
:1007E0000895FB019F01E8944230C4F04532B4F40F
:1007F0004A3029F497FB1EF4909581959F4F642F02
:1008000077270E946732805D8A330CF0895D81937F
:10081000CB010097A1F716F45DE251931082C90154
:100820000C943D04592F482F372F262F660F771F22
:10083000881F991F660F771F881F991F620F731FEC
:10084000841F951F660F771F881F991F0895FB014E
:100850009F01423074F0453264F4642F77270E9480
:100860006732805D8A330CF0895D8193CB010097FC
:10087000A1F71082C9010C943D04DC01FC01672F33
:1008800071917723E1F7329704C07C916D93708367
:100890006291AE17BF07C8F308950E942B110E9402
:1008A000DD0C08950E949C110E94BF0D0895382F01
:1008B000413210F040E042C08091A8048823E1F763
:1008C00091E09093A8042093AA048FEF80931505DC
:1008D0001092D00441504093D1044F5F9093A904EB
:1008E0008091A904330F832B8093A9048091AB04DA
:1008F000813041F41092AB048091A9048093BB0035
:1009000085EC01C085EE8093BC008091A804813005
:10091000E1F38091D004841710F44091D00420E0DA
:1009200030E00AC0FB01E20FF31FD901A055BB4F15
:100930008C9180832F5F3F4F2417A0F3842F08955D
:100940000F931F93582F122F413210F081E04AC0AD
:100950008091A8048823E1F782E08093A8040093A3
:10096000AA048FEF809315051092D0044093D10410
:10097000A0EBB4E0FB0102C081918D938E2F861B0A
:100980008417D0F31092A9048091A904550F852BE8
:100990008093A9048091AB04813041F41092AB04A0
:1009A0008091A9048093BB0085EC01C085EE809303
:1009B000BC00112321F08091A8048230E1F38091E2
:1009C00015058F3F11F480E00DC080911505803230
:1009D00011F482E007C080911505803311F084E0A6
:1009E00001C083E01F910F910895482F613210F0EC
:1009F00081E008958091A804843011F082E0089588
:100A00006093F304A2EDB4E0842F9C01F90102C0CD
:100A100081918D938E2F841B8617D0F380E00895EB
:100A20001F920F920FB60F920BB60F9211242F93B5
:100A30003F934F935F936F937F938F939F93AF9366
:100A4000BF93EF93FF938091B90090E0887F9070FF
:100A50008036910509F4F2C081369105CCF58832D3
:100A6000910509F47BC089329105B4F48031910578
:100A700009F46FC0813191053CF4009709F447C136
:100A8000089709F04FC165C08831910509F466C027
:100A9000809709F047C182C08034910509F4A4C051
:100AA0008134910544F48033910509F482C0C897DC
:100AB00009F038C189C08035910509F489C08835AD
:100AC000910509F496C08834910509F02BC1AEC098
:100AD0008839910509F413C189399105ECF48837F7
:100AE000910509F4ABC0893791054CF4883691051E
:100AF00009F4A4C08037910509F014C19FC088385B
:100B0000910509F4FCC08039910509F49DC0803835
:100B1000910509F007C198C0803B910509F4C6C052
:100B2000813B91054CF4803A910509F49FC0883AC5
:100B3000910509F0F7C0BAC0803C910509F4E3C003
:100B4000883C910509F4DFC0883B910509F0EAC0B3
:100B5000C2C08091A9048093BB00CFC09091D00403
:100B60008091D104981768F49091D004E92FF0E0B7
:100B7000E055FB4F80818093BB009F5F9093D00432
:100B8000BCC08091AA04882309F44BC085ED8093F2
:100B9000BC008091BC0084FDFCCFC2C080E2809389
:100BA000150585ED8093BC008091BC0084FDFCCFD1
:100BB000B7C080E38093150585ED8093BC008091DC
:100BC000BC0084FDFCCFACC088E3809315059BC0BE
:100BD0008091D0049091BB00E82FF0E0E055FB4FEE
:100BE00090838F5F8093D0049091D0048091D10442
:100BF00082C08091D0049091BB00E82FF0E0E055D6
:100C0000FB4F90838F5F8093D0048091AA04882348
:100C100041F085ED8093BC008091BC0084FDFCCF49
:100C20007FC081E08093AB0484EA6EC085ED809341
:100C3000BC008091BC0084FDFCCF72C083E0809337
:100C4000A8041092140559C080911405803208F050
:100C500056C0809114059091BB00E82FF0E0EC5055
:100C6000FB4F90838F5F8093140547C080911405DC
:100C7000803230F4E0911405F0E0EC50FB4F10822C
:100C800085ED8093BC008091BC0084FDFCCF109268
:100C9000A80460911405E091AE04F091AF0484EFD4
:100CA00094E070E01995109214052DC084E08093B3
:100CB000A8041092F2041092F304E091AC04F091B5
:100CC000AD0419958091F304882329F481E0809381
:100CD000F3041092D2049091F204E92FF0E0EE5266
:100CE000FB4F80818093BB009F5F9093F2049091B3
:100CF000F2048091F304981710F485EC01C085E8A4
:100D00008093BC000FC085EC8093BC0009C010929A
:100D1000150585ED8093BC008091BC0084FDFCCF5F
:100D20001092A804FF91EF91BF91AF919F918F9185
:100D30007F916F915F914F913F912F910F900BBEDB
:100D40000F900FBE0F901F9018951092A80481E08D
:100D50008093AA041092AB0484E161E00E944027D2
:100D600085E161E00E944027E9EBF0E080818E7F21
:100D7000808380818D7F808388E48093B80085E4C0
:100D80008093BC0008950F931F938C01FC01828116
:100D900061E00E944027F801118210821F910F919B
:100DA00008950F931F938C01FC01828160E00E94E3
:100DB000402781E090E0F801918380831F910F919B
:100DC0000895EF92FF920F931F93CF93DF937C01CF
:100DD000EB01CA016A5F7F4F0E94AF2D8823D9F0D3
:100DE0008C819D81892BB9F0C8010E94042D61304E
:100DF00071058105910521F4CE010E94D1060BC039
:100E0000C8010E94042D611571058105910519F431
:100E1000CE010E94C306C70160E072E00E94432F2A
:100E2000C701DF91CF911F910F91FF90EF9008952F
:100E3000EF92FF920F931F93182F092F7B0160E011
:100E400072E00E94432F812F902F61E072E00E9498
:100E5000C62EB7016A5F7F4F812F902F0E94D62E3A
:100E6000812F902F63E072E00E94C62EF70164810B
:100E70007581812F902F0E94552E812F902F65E034
:100E800072E00E94C62EF70160817181812F902F40
:100E90000E94552E812F902F68E072E00E94C62E8E
:100EA000812F902F1F910F91FF90EF9008950F9336
:100EB0001F938C01FC01828161E00E948D26C80194
:100EC0000E94C3061F910F9108958F929F92AF9237
:100ED000BF92CF92DF92EF92FF920F931F938C01FC
:100EE0006B015A01490186E0E82EF12CE00EF11E5B
:100EF000C70160E072E00E94432FF801D382C282F2
:100F0000C701B5010E940930F801958284821F91C2
:100F10000F91FF90EF90DF90CF90BF90AF909F9098
:100F20008F9008950F931F93CF93DF938C01FB0154
:100F3000EA01CA0167850E94542D2C813D81B901C7
:100F400077FD06C0AC014F5F5F4F4617570734F07F
:100F5000C8016AE072E00E94432F04C0C801BE01CC
:100F60000E94C22FC801DF91CF911F910F91089568
:100F7000CF92DF92EF92FF920F931F93CF93DF9365
:100F80007C018B01EA01CA01FB0166850E94542D98
:100F90006C01CE01F80167850E94542D9C0197FDDC
:100FA00006C0A6014F5F5F4F4817590734F0C701CD
:100FB0006AE072E00E94432F04C0C701BE010E9494
:100FC000C22FC701DF91CF911F910F91FF90EF903A
:100FD000DF90CF900895EF92FF920F931F93DF93CE
:100FE000CF93CDB7DEB727970FB6F894DEBF0FBE0D
:100FF000CDBFFC017B01CB0166850E94542D9C0175
:1010000097FF04C0EE24EA94FE2C10C08E010F5FFF
:101010001F4FC801B70141E050E00E94C22FC80134
:101020000E94042D7B01C8010E942B30C701279626
:101030000FB6F894DEBF0FBECDBFCF91DF911F91E9
:101040000F91FF90EF9008950F931F938C01CB01A8
:1010500060E070E00E94DE2CFC0120E09081F8014D
:101060008585981709F421E0822F1F910F9108952B
:10107000AF92BF92CF92DF92EF92FF920F931F93A6
:10108000CF93DF936C017A01FA01A480B58010E060
:10109000C0E0D0E00CE810C0C701BE010E94CD2C1A
:1010A000282F98E0822F8127169580FD10279150D8
:1010B00011F02695F7CF2196CA15DB0569F7C60111
:1010C000612F4AE00E94902FC601DF91CF911F91BE
:1010D0000F91FF90EF90DF90CF90BF90AF90089569
:1010E0006F927F928F929F92AF92BF92CF92DF9238
:1010F000EF92FF920F931F93DF93CF93CDB7DEB79D
:10110000E8970FB6F894DEBF0FBECDBF5C014B0170
:101110006A018E010F5F1F4FC801BA010E94203083
:10112000C401B8010E942408F82EC8010E942B3087
:10113000FF2089F08E01085F1F4FC801B6010E9491
:101140002030C401B8010E94EB077C01C8010E9455
:101150002B30F7FE06C0C5016AE072E00E94432F03
:101160006AC08E010A5E1F4FC801B6010E9420307E
:101170003FE0632E712C6C0E7D1EC301B401A801EB
:101180000E94B807C8010E942B30C3016AE072E0D8
:101190000E94592D882329F48B899C89E816F90629
:1011A00031F0C5016AE072E00E94432F40C08E0119
:1011B0000C5D1F4FC801B6010E9420302DE1C22EE8
:1011C000D12CCC0EDD1EC601B401A8010E949207ED
:1011D000C8010E942B308E010E5C1F4FC801B30165
:1011E0000E9420309BE2E92EF12CEC0EFD1EC7017F
:1011F000B401A8010E943808C8010E942B30C60122
:10120000B7010E94AF2D882331F4C5016AE072E076
:101210000E94432F04C0C501B3010E942030CE01BB
:101220008B960E942B30CE014D960E942B30CE0122
:101230000F960E942B30C501E8960FB6F894DEBFDA
:101240000FBECDBFCF91DF911F910F91FF90EF9017
:10125000DF90CF90BF90AF909F908F907F906F90D6
:1012600008958F929F92AF92BF92CF92DF92EF92AA
:10127000FF920F931F93DF93CF93CDB7DEB72E97D7
:101280000FB6F894DEBF0FBECDBFF82EE92E6B016E
:101290005A016AE072E00E94432F8E01085F1F4FDF
:1012A000C801B5010E9420304E010894811C911C98
:1012B000C401B601A8010E943808C8010E942B3061
:1012C0008F2D9E2DF60165850E94B22EF501648159
:1012D00075818F2D9E2D0E94282E8F2D9E2DF6011B
:1012E00066850E94B22E8F2D9E2DB5010E94D62EAE
:1012F0008F2D9E2DF60167850E94B22E8F2D9E2D7B
:10130000B4010E94D62E8F2D9E2DF60160890E9479
:10131000B22EC4010E942B308F2D9E2D2E960FB61B
:10132000F894DEBF0FBECDBFCF91DF911F910F911B
:10133000FF90EF90DF90CF90BF90AF909F908F90F5
:1013400008957F928F929F92AF92BF92CF92DF9239
:10135000EF92FF920F931F93DF93CF93CDB7DEB73A
:101360002E970FB6F894DEBF0FBECDBF982E892EF4
:101370007B018E010F5F1F4FC8016AE072E00E947F
:10138000432F0E9486255B016C01702E012F6AE0BD
:1013900070E080E090E00E94942587E299E00E944E
:1013A000832A682FF7018081882319F06A3029F495
:1013B0001AC0F70180896817B1F0872D902F0E941D
:1013C000B22E0E9486256A197B098C099D09F701B6
:1013D00021853285438554852617370748075907E5
:1013E000B0F691E001C090E0F7018081882381F0A0
:1013F000992331F0CE0101966BE072E00E94772FC5
:10140000892D982DBE016F5F7F4F0E9420301BC039
:10141000992339F0892D982D6AE072E00E94432FBC
:1014200012C08E01085F1F4FC801BE016F5F7F4F62
:101430000E942030892D982DB701A8010E947008C4
:10144000C8010E942B30CE0101960E942B30892DBD
:10145000982D2E960FB6F894DEBF0FBECDBFCF915C
:10146000DF911F910F91FF90EF90DF90CF90BF9091
:10147000AF909F908F907F90089587E299E00E94AF
:10148000522A20E0892B09F021E0822F0895AF92A3
:10149000BF92CF92DF92EF92FF920F931F93DF9351
:1014A000CF93CDB7DEB765970FB6F894DEBF0FBE0A
:1014B000CDBF5C016B018E010F5F1F4FC80165E15D
:1014C00072E00E945D2FC801B6010E940C2F67E1F7
:1014D00072E00E94F02EBC01C6010E940930C801D2
:1014E0000E943130F5018081882331F087E299E054
:1014F000B6010E94B92C1CC048E0E42EF12CEC0E81
:10150000FD1EC701B6010E9420308E01015F1F4FF2
:10151000C801B501A7010E94310987E299E0B8012D
:101520000E94862CC8010E942B30C7010E942B30DC
:1015300065960FB6F894DEBF0FBECDBFCF91DF9199
:101540001F910F91FF90EF90DF90CF90BF90AF90E1
:101550000895EF92FF920F931F93CF93DF93EC01C7
:1015600080E895E2A0E0B0E089839A83AB83BC83F6
:1015700080ED97E0A0E0B0E08D839E83AF83B887D5
:1015800089879A87AB87BC8781E08D8782E08E87C9
:1015900083E08F8784E0888B85E0898B86E08A8B67
:1015A00087E299E040E855E260E070E00E94CC29D3
:1015B00087E299E069890E94BE2A0E9486257B0104
:1015C0008C0187E299E00E94522A892B81F087E200
:1015D00099E00E94832A6A89262F30E082179307B8
:1015E00031F487E299E00E94BE2A188217C00E9457
:1015F00086256E197F09800B910B2D813E814F81CD
:1016000058852617370748075907D8F687E299E023
:101610006AE172E00E94732C81E08883DF91CF91B0
:101620001F910F91FF90EF9008952F923F924F924C
:101630005F926F927F928F929F92AF92BF92CF9262
:10164000DF92EF92FF920F931F93DF93CF93CDB76B
:10165000DEB7C057D0400FB6F894DEBF0FBECDBF87
:101660008130910509F03AC16F5F7F4F09F07DC16C
:101670008E010F5F1F4FC80167E372E00E94432F86
:1016800089E295E0B80141E050E00E94201AC801CB
:101690000E942B308E01085F1F4FC8016CE372E07F
:1016A0000E94432F86E395E0B80141E050E00E949C
:1016B000131FC8010E942B30AFE0AA2EB12CAC0E34
:1016C000BD1EC50161E472E00E94432FF6E1CF2EFA
:1016D000D12CCC0EDD1EC60166E472E00E94432FC1
:1016E00085E795E066E370E0A50121E030E0860142
:1016F000E1E0EE2EF12C0E946118C6010E942B3011
:10170000C5010E942B30BDE12B2E312C2C0E3D1E2D
:10171000C1016BE472E00E94432FA4E24A2E512CD7
:101720004C0E5D1EC20161E472E00E94432FFBE299
:101730006F2E712C6C0E7D1EC30166E472E00E9458
:10174000432F85EA95E06BE070E049E050E09101BD
:1017500001E010E07201E2E0CE2ED12C5301B2E0A4
:101760008B2E912C0E94161BC3010E942B30C201AC
:101770000E942B30C1010E942B30A2E38A2E912CB3
:101780008C0E9D1EC40160E572E00E94432FF9E3B8
:10179000AF2EB12CAC0EBD1EC50165E572E00E94F6
:1017A000432F86ED95E067E070E048E350E0940158
:1017B0007501E1E0CE2ED12C0E947015C5010E946A
:1017C0002B30C4010E942B308E01005C1F4FC801DA
:1017D0006AE572E00E94432F8AE096E067E3A80181
:1017E00021E030E00E949C12C8010E942B308E0143
:1017F000095B1F4FC8016FE572E00E94432F89E12A
:1018000096E064E070E0A80121E030E00E94650706
:10181000C8010E942B308E01025B1F4FC80164E695
:1018200072E00E94432F86E296E06CE070E0A8012F
:1018300021E030E00E946507C8010E942B308E0134
:101840000B5A1F4FC80169E672E00E94432F83E3E1
:1018500096E063E070E0A80121E030E00E946507B7
:10186000C8010E942B308E01045A1F4FC8016EE63A
:1018700072E00E94432F80E496E062E070E0A801ED
:1018800021E030E00E946507C8010E942B308E01E4
:101890000D591F4FC80163E772E00E94432F8DE48A
:1018A00096E06AE070E0A80121E030E00E94650760
:1018B000C8010E942B308E0106591F4FC80168E7EE
:1018C00072E00E94432F8AE596E068E070E0A8018C
:1018D00021E030E00E946507C80145C0892B09F06E
:1018E00044C06F5F7F4F09F040C080E696E00E94E1
:1018F0002B3083E596E00E942B3086E496E00E9430
:101900002B3089E396E00E942B308CE296E00E9417
:101910002B308FE196E00E942B308BE096E00E9406
:101920002B308BEE95E00E942B3082EE95E00E94EA
:101930002B3087EC95E00E942B308EEB95E00E94D7
:101940002B3085EB95E00E942B3080E895E00E94DB
:101950002B3087E795E00E942B308CE395E00E94C6
:101960002B308FE295E00E942B30C059DF4F0FB62D
:10197000F894DEBF0FBECDBFCF91DF911F910F91C5
:10198000FF90EF90DF90CF90BF90AF909F908F909F
:101990007F906F905F904F903F902F90089580E0E0
:1019A00090E06FEF7FEF0E94150B089581E090E0CB
:1019B0006FEF7FEF0E94150B0895EF92FF920F9348
:1019C0001F93DF93CF93CDB7DEB7CB55D0400FB683
:1019D000F894DEBF0FBECDBF7E010894E11CF11C60
:1019E000C7016DE772E00E94432F8E01085F1F4F11
:1019F000C80169E275E00E945619C701B8010E944A
:101A0000D62EC8010E942B308E01015F1F4FC801E6
:101A100065E775E00E949F17C701B8010E94D62EA6
:101A2000C8010E942B308E010A5E1F4FC80165EA73
:101A300075E00E94851DC701B8010E94D62EC8011D
:101A40000E942B308E01035E1F4FC80166ED75E0CA
:101A50000E949714C701B8010E94D62EC8010E94A7
:101A60002B308E010C5D1F4FC8016AE076E00E94AA
:101A70001B12C701B8010E94D62EC8010E942B304C
:101A80008E01055D1F4FC80163E376E00E941807D1
:101A9000C701B8010E94D62EC8010E942B308E01CA
:101AA0000E5C1F4FC80160E476E00E941807C70172
:101AB000B8010E94D62EC8010E942B308E01075C0F
:101AC0001F4FC8016DE476E00E941807C701B801F6
:101AD0000E94D62EC8010E942B308E01005C1F4F41
:101AE000C8016AE576E00E941807C701B8010E94A4
:101AF000D62EC8010E942B308E01095B1F4FC801F2
:101B000069E176E00E941807C701B8010E94D62E4D
:101B1000C8010E942B308E01025B1F4FC80166E294
:101B200076E00E941807C701B8010E94D62EC801AE
:101B30000E942B30C7016EE872E00E94C62E8E0113
:101B40000B5A1F4FC801B7010E94203086E195E073
:101B5000B8010E94470AC8010E942B30C7010E94A9
:101B60002B30C55ADF4F0FB6F894DEBF0FBECDBF86
:101B7000CF91DF911F910F91FF90EF90089589E22F
:101B800095E00E941B1A85E795E00E94381685EAC9
:101B900095E00E947F1E8AE096E00E94A11186EDEA
:101BA00095E00E94591583E396E00E94570780E470
:101BB00096E00E9457078DE496E00E9457078AE559
:101BC00096E00E94570789E196E00E94570786E257
:101BD00096E00E94570708952F923F924F925F928E
:101BE0006F927F928F929F92AF92BF92CF92DF922D
:101BF000EF92FF920F931F93DF93CF93CDB7DEB792
:101C0000A5970FB6F894DEBF0FBECDBF8DA3592E9A
:101C10004B01C82ED92E67E972E00E94432FB9E02C
:101C20002B2E312C2C0C3D1CC10167E972E00E9467
:101C3000432FF601108AF4014480F581FCA38E0144
:101C40000F5F1F4FC80168E972E00E94432FC40173
:101C5000B8010E94332D3C01C8010E942B3016149C
:101C600017040CF05FC0E42CFCA06E147F040CF091
:101C700059C08E01085F1F4FC80168E972E00E94D9
:101C8000432FA3014F5F5F4FC401B8010E94152D80
:101C90005C01C8010E942B301A141B040CF042C0D6
:101CA0000894E108F108AE14BF04E4F58E01015F69
:101CB0001F4FC801B40140E050E024E030E00E9432
:101CC000C22F8C2D952DB8010E940930C8010E94A9
:101CD0002B308E010A5E1F4FC801B401A30195018C
:101CE0000E94C22FC8010E94042DF60170876783ED
:101CF000C8010E942B308E01035E1F4F0894A11C67
:101D0000B11CC801B401A501242D3CA10E94C22F21
:101D1000C101B8010E940930C8010E942B3081E046
:101D2000F601808B8DA1952DA5960FB6F894DEBF98
:101D30000FBECDBFCF91DF911F910F91FF90EF901C
:101D4000DF90CF90BF90AF909F908F907F906F90DB
:101D50005F904F903F902F9008954F925F926F92B7
:101D60007F928F929F92AF92BF92CF92DF92EF922B
:101D7000FF920F931F93DF93CF93CDB7DEB7C6507B
:101D8000D1400FB6F894DEBF0FBECDBF582E492EFE
:101D900067E972E00E94432F8E010F5F1F4FC80159
:101DA00066E175E00E94A109B8E0EB2EF12CEC0E83
:101DB000FD1EC701B8010E942030A6EF6A2E712CCB
:101DC0006C0E7D1EC301B7010E94EC0DC7010E947D
:101DD0002B30F3018089882309F415C2FFE0AF2E70
:101DE000B12CAC0EBD1EC501B3010E942030F30121
:101DF00007811085E6E1CE2ED12CCC0EDD1E79E0D8
:101E0000872E912C860C971CC601B4010E942030AD
:101E10006DE1E62EF12CEC0EFD1EC70169E275E0C6
:101E2000A501980186010E944B19852D942DB701BB
:101E30000E94D62EC7010E942B30C6010E942B3073
:101E4000C5010E942B3054E2A52EB12CAC0EBD1E54
:101E5000C501B3010E942030F301078110854BE2D8
:101E6000C42ED12CCC0EDD1EC601B4010E94203040
:101E700032E3E32EF12CEC0EFD1EC70165E775E0A1
:101E8000A501980186010E94BF15852D942DB701EB
:101E90000E94D62EC7010E942B30C6010E942B3013
:101EA000C5010E942B3029E3A22EB12CAC0EBD1E21
:101EB000C501B3010E942030F3010781108590E431
:101EC000C92ED12CCC0EDD1EC601B4010E942030DB
:101ED00087E4E82EF12CEC0EFD1EC70165EA75E0E3
:101EE000A501980186010E94B31C852D942DB70190
:101EF0000E94D62EC7010E942B30C6010E942B30B3
:101F0000C5010E942B30BEE4AB2EB12CAC0EBD1E21
:101F1000C501B3010E942030F30107811085A5E5BA
:101F2000CA2ED12CCC0EDD1EC601B4010E94203079
:101F3000FCE5EF2EF12CEC0EFD1EC70166ED75E001
:101F4000A501980186010E94CD12852D942DB7011F
:101F50000E94D62EC7010E942B30C6010E942B3052
:101F6000C5010E942B30E3E6AE2EB12CAC0EBD1E97
:101F7000C501B3010E942030F301078110857AE684
:101F8000C72ED12CCC0EDD1EC601B4010E9420301C
:101F900061E7E62EF12CEC0EFD1EC7016AE076E04B
:101FA000A501980186010E94A211852D942DB701EB
:101FB0000E94D62EC7010E942B30C6010E942B30F2
:101FC000C5010E942B3058E7A52EB12CAC0EBD1ECA
:101FD000C501B3010E942030F301078110854FE74E
:101FE000C42ED12CCC0EDD1EC601B4010E942030BF
:101FF00036E8E32EF12CEC0EFD1EC70163E376E01C
:10200000A501980186010E94E106852D942DB70156
:102010000E94D62EC7010E942B30C6010E942B3091
:10202000C5010E942B302DE8A22EB12CAC0EBD1E96
:10203000C501B3010E942030F3010781108594E9A6
:10204000C92ED12CCC0EDD1EC601B4010E94203059
:102050008BE9E82EF12CEC0EFD1EC70160E476E062
:10206000A501980186010E94E106852D942DB701F6
:102070000E94D62EC7010E942B30C6010E942B3031
:10208000C5010E942B30B2EAAB2EB12CAC0EBD1EA6
:10209000C501B3010E942030F30107811085A9EA30
:1020A000CA2ED12CCC0EDD1EC601B4010E942030F8
:1020B000F0EBEF2EF12CEC0EFD1EC7016DE476E087
:1020C000A501980186010E94E106852D942DB70196
:1020D0000E94D62EC7010E942B30C6010E942B30D1
:1020E000C5010E942B30E7EBAE2EB12CAC0EBD1E0D
:1020F000C501B3010E942030F301078110857EEBFA
:10210000C72ED12CCC0EDD1EC601B4010E9420309A
:1021100065ECE62EF12CEC0EFD1EC7016AE576E0BB
:10212000A501980186010E94E106852D942DB70135
:102130000E94D62EC7010E942B30C6010E942B3070
:10214000C5010E942B305CECA52EB12CAC0EBD1E3F
:10215000C501B3010E942030F3010781108543EDD2
:10216000C42ED12CCC0EDD1EC601B4010E9420303D
:102170003AEDE32EF12CEC0EFD1EC70169E176E08D
:10218000A501980186010E94E106852D942DB701D5
:102190000E94D62EC7010E942B30C6010E942B3010
:1021A000C5010E942B3021EEA22EB12CAC0EBD1E1B
:1021B000C501B3010E942030F3010781108598EE1C
:1021C000C92ED12CCC0EDD1EC601B4010E942030D8
:1021D0008FEEE82EF12CEC0EFD1EC70166E276E0D4
:1021E000A501980186010E94E106852D942DB70175
:1021F0000E94D62EC7010E942B30C6010E942B30B0
:10220000C5010E942B308E010A501F4FC80109964C
:102210000E942B30C8010E942B30CE0101960E94F3
:102220002B30852D942DCA5FDE4F0FB6F894DEBF9C
:102230000FBECDBFCF91DF911F910F91FF90EF9017
:10224000DF90CF90BF90AF909F908F907F906F90D6
:102250005F904F900895EF92FF920F931F93DF933B
:10226000CF93CDB7DEB76C970FB6F894DEBF0FBE35
:10227000CDBF8E010F5F1F4FC80167E972E00E945A
:10228000432FF02EE12E8E01085F1F4F0BC0C801B7
:102290000E94AD0E8F2D9E2DB8010E94D62EC80132
:1022A0000E942B3086E195E00E943D0A882379F751
:1022B0008F2D9E2D67E972E00E94592D882359F5D4
:1022C0008E01015F1F4FC8016AE972E00E945D2F15
:1022D000C8016F2D7E2D0E940C2FBC018F2D9E2DCD
:1022E0000E940930C8010E9431308F2D9E2D6EE86A
:1022F00072E00E94C62E8E010A5E1F4FC8016F2D2C
:102300007E2D0E94203086E195E0B8010E94470AA8
:10231000C8010E942B30CE0101960E942B306C9692
:102320000FB6F894DEBF0FBECDBFCF91DF911F91E6
:102330000F91FF90EF90089586E195E00E94A90A21
:10234000089508950F931F938C016DEA72E00E9427
:10235000432FC8011F910F9108954F925F926F9282
:102360007F928F929F92AF92BF92CF92DF92EF9225
:10237000FF920F931F93582E492E59016A016DEA5F
:1023800072E00E94432FC601B5010E941D319B01DE
:10239000AC017B01852D942DB9010E94552E852D10
:1023A000942D6EEA72E00E94C62EC601B50120E0AF
:1023B00030E040E050E00E9400329701442737FDB2
:1023C0004095542F38018824992488234CF0CA0161
:1023D000B9010E9450319B01AC01C601B50106C094
:1023E000CA01B9010E945031A60195010E944C30EA
:1023F0007B018C01C401B3010E944E319B01AC01F1
:10240000C801B7010E9404320E942231852D942D0B
:102410000E94552E852D942D1F910F91FF90EF90C6
:10242000DF90CF90BF90AF909F908F907F906F90F4
:102430005F904F900895CF92DF92EF92FF920F93AB
:102440001F93DF93CF93CDB7DEB727970FB6F894DE
:10245000DEBF0FBECDBFD82EC92E8B0160EB72E060
:102460000E94432FB8016F5F7F4F8D2D9C2D0E94DE
:10247000D62E8D2D9C2D62EB72E00E94C62EF801A7
:10248000608571858D2D9C2D0E94552E8D2D9C2D46
:1024900064EB72E00E94C62EF80180810E945926EA
:1024A000AA2797FDA095BA2FBC01CD010E945031FB
:1024B00020E030E040EA50E40E94043220E030E0C6
:1024C00040E85AE30E94043220E030E040E650E465
:1024D0000E940432F80122853385448555850E9487
:1024E0004D309B01AC017E010894E11CF11CC70139
:1024F000B80104E610E00E94AD118D2D9C2DB701AE
:102500000E94D62EC7010E942B308D2D9C2D67EB8B
:1025100072E00E94C62E8D2D9C2D27960FB6F89442
:10252000DEBF0FBECDBFCF91DF911F910F91FF9006
:10253000EF90DF90CF9008959F92AF92BF92CF928D
:10254000DF92EF92FF920F931F938C01962E5A0108
:1025500069017C010894E11CF11CC7016DEA72E07D
:102560000E94432FF801D186C0869082C701B50131
:102570000E94093083EC95EFA8E2BFEBF801828757
:102580009387A487B5871F910F91FF90EF90DF90FD
:10259000CF90BF90AF909F9008950F931F938C01A1
:1025A00069EB72E00E94432FC8011F910F910895BB
:1025B0004F925F926F927F928F929F92AF92BF9253
:1025C000CF92DF92EF92FF920F931F93582E492ED6
:1025D00059016A0169EB72E00E94432FC601B501FF
:1025E0000E941D319B01AC017B01852D942DB90109
:1025F0000E94552E852D942D6AEB72E00E94C62E06
:10260000C601B50120E030E040E050E00E94003219
:102610009701442737FD4095542F38018824992489
:1026200088234CF0CA01B9010E9450319B01AC01D2
:10263000C601B50106C0CA01B9010E945031A60108
:1026400095010E944C307B018C01C401B3010E94B2
:102650004E319B01AC01C801B7010E9404320E94B7
:102660002231852D942D0E94552E852D942D1F915C
:102670000F91FF90EF90DF90CF90BF90AF909F9021
:102680008F907F906F905F904F9008950F931F935E
:10269000CF93DF93EC018C01065D1F4F8AA99BA9A4
:1026A000B8010E948520882329F48AA99BA90E9449
:1026B000361F1BC0C80167E00E94431F99A98917F4
:1026C000A1F48AA5803111F0883279F48AA99BA9F6
:1026D0000E943A208AA99BA9B8010E9419208AA9C0
:1026E0009BA964E441E00E94D91FDF91CF911F9123
:1026F0000F910895EF92FF920F931F93CF93DF9363
:102700008C01FC0182A993A90E943A20B801665D60
:102710007F4FF80182A993A90E941920F80182A98C
:1027200093A96EEB40E00E94D91FE80189E0E82EF2
:10273000F12CE00EF11EF80182A993A90E94881FD6
:102740008E8F2196CE15DF05B1F7F80182A993A9E6
:102750000E94361FF801778D60E0268D30E0622BF5
:10276000732B882777FD8095982F0E94503120E0A9
:1027700030E040E85DE30E940432F8016083718339
:1027800082839383C8010E944613DF91CF911F91EA
:102790000F91FF90EF900895AF92BF92CF92DF928A
:1027A000EF92FF920F931F93CF93DF93EC015A01A7
:1027B0006B018A850E945926AA2797FDA095BA2FFA
:1027C000BC01CD010E94503120E030E44CE955E4D9
:1027D0000E94043220E030E040E85AE30E940432D4
:1027E0007B018C01C601B50120E030E048EC51E4EA
:1027F0000E944C3020E53DE847E95CE30E9404324A
:1028000020E030E040E85FE30E944D309B01AC01E6
:10281000C801B7010E94B5307B018C0120E030E097
:1028200046E153E40E94B130882354F0C801B70157
:1028300020E030E44EE455E40E94003218164CF4D7
:1028400080E090E0A0E0B0E08C839D83AE83BF8306
:1028500050C0C801B70120E030E040EE53E40E94D0
:10286000B13018166CF0C801B70128E431EE4AED1A
:1028700050E40E94043227ED33EA40E852E416C0E7
:10288000C801B70120E030E246EB54E40E94B130C9
:1028900018167CF0C801B70129E23CE54FED50E481
:1028A0000E94043220E030E04EEF52E40E944C30AF
:1028B0000EC0C801B7012AE939E949EA50E40E948B
:1028C000043220E030E64EE055E40E944D306C8347
:1028D0007D838E839F836C817D818E819F8120E0AB
:1028E00030E04AE754E40E94B5306C837D838E83E8
:1028F0009F83DF91CF911F910F91FF90EF90DF9019
:10290000CF90BF90AF9008950F931F938C010E94BA
:102910007A13C8010E944613F801408151816281F7
:102920007381C8010E94CC131F910F9108952F92BB
:102930003F924F925F926F927F928F929F92AF924F
:10294000BF92CF92DF92EF92FF920F931F93DF938C
:10295000CF93CDB7DEB72E970FB6F894DEBF0FBE7C
:10296000CDBFB82EA92E6B01CB010E9484148B2DF4
:102970009A2D69EB72E00E94432F5CEB252E52E00A
:10298000352E8B2D9A2DB1010E94C62EB601645FA3
:102990007F4F8B2D9A2D0E94D62E4EEB442E42E077
:1029A000542E8B2D9A2DB2010E94C62EF6016389FA
:1029B00074898B2D9A2D0E94552E30EC632E32E0B7
:1029C000732E8B2D9A2DB3010E94C62EF601208105
:1029D0003181428153817E010894E11CF11CC701C1
:1029E000B60104E610E00E94D8128B2D9A2DB70193
:1029F0000E94D62EC7010E942B3023EC822E22E0AB
:102A0000922E8B2D9A2DB4010E94C62E8B2D9A2DBD
:102A1000B1010E94C62EB6016B5E7F4F8B2D9A2DA1
:102A20000E94D62E8B2D9A2DB2010E94C62EF60141
:102A3000648D758D8B2D9A2D0E94552E8B2D9A2D80
:102A4000B3010E94C62E98E0E92EF12CEC0EFD1E7B
:102A5000F6012481358146815781C701B6010E9464
:102A6000D8128B2D9A2DB7010E94D62EC7010E9435
:102A70002B308B2D9A2DB4010E94C62E8B2D9A2DB2
:102A80002E960FB6F894DEBF0FBECDBFCF91DF916B
:102A90001F910F91FF90EF90DF90CF90BF90AF907C
:102AA0009F908F907F906F905F904F903F902F906E
:102AB0000895EF92FF920F931F938C018EE090E0A8
:102AC0000E944930F82EE92EF80160850E941B21F2
:102AD000F801F2AAE3AA1F910F91FF90EF900895D9
:102AE0002F923F924F925F926F927F928F929F921E
:102AF000AF92BF92CF92DF92EF92FF920F931F930C
:102B0000CF93DF935C011B01E901ECE04E2E512CC9
:102B1000480E591E79EB872E72E0972EC201B40140
:102B20000E94432F65E1662E712C6A0C7B1CC30149
:102B3000B4010E94432FF50131862086C201BE01F7
:102B40000E940930F501148B038BC301B7010E9469
:102B50000930F501D58EC48EDF91CF911F910F9171
:102B6000FF90EF90DF90CF90BF90AF909F908F90AD
:102B70007F906F905F904F903F902F9008950F93AC
:102B80001F938C0165EC72E00E94432FC8011F91D6
:102B90000F9108954F925F926F927F928F929F92C2
:102BA000AF92BF92CF92DF92EF92FF920F931F935B
:102BB000582E492E59016A0165EC72E00E94432F9C
:102BC000C601B5010E941D319B01AC017B01852D21
:102BD000942DB9010E94552E852D942D66EC72E03E
:102BE0000E94C62EC601B50120E030E040E050E072
:102BF0000E9400329701442737FD4095542F380139
:102C00008824992488234CF0CA01B9010E945031CC
:102C10009B01AC01C601B50106C0CA01B9010E9401
:102C20005031A60195010E944C307B018C01C401FA
:102C3000B3010E944E319B01AC01C801B7010E9453
:102C400004320E942231852D942D0E94552E852D0F
:102C5000942D1F910F91FF90EF90DF90CF90BF9038
:102C6000AF909F908F907F906F905F904F9008955E
:102C70000F931F938C01FC01808160E00E948D26E0
:102C8000F801808161E00E944027F80113A214A29C
:102C900015A216A21F910F910895CF92DF92EF9285
:102CA000FF920F931F93CF93DF93EC01888161E034
:102CB0000E94402762E070E080E090E00E9494254E
:102CC0000E9486259B01AC018BA19CA1ADA1BEA158
:102CD000281739074A075B0720F41BA21CA21DA274
:102CE0001EA28FA1882371F48BA19CA1ADA1BEA1CE
:102CF000281B390B4A0B5B0B205D3740404050408E
:102D000008F475C01FA20E9486256BA37CA38DA327
:102D10009EA318A21F8E1E8E1D8E1C8E888161E0C0
:102D20000E948D26888160E00E94402764E170E067
:102D300080E090E00E949425888161E00E94402715
:102D400088E290E00E94ED25888160E00E948D2657
:102D500081E0EE2400E010E00AC0F39481E090E00E
:102D60000E94ED258FEFF81629F40AC0822FFF2468
:102D7000C82EDD2488810E9473278C159D0569F378
:102D800088810E947327282F8FEFF816C9F004302E
:102D900090F000FD10C08E2D869586958695FE01DB
:102DA000E80FF11D948D990F948F8AA18F1510F45F
:102DB0009160948FE3940F5F1F4F05351105B1F6B5
:102DC00087E28E1510F030E013C030E048A150E0EB
:102DD0002D8D8C8D90E0820F911D2E8D820F911D77
:102DE0002F8D820F911D90704817590709F431E01B
:102DF000832FDF91CF911F910F91FF90EF90DF9084
:102E0000CF900895DF92EF92FF920F931F93CF938D
:102E1000DF93EC0180E090E0A0E0B0E088A799A704
:102E2000AAA7BBA78CA79DA7AEA7BFA7CE010E944C
:102E30004D16882309F462C06C8D70E080E090E04C
:102E40000E944E3120E030E040E853E40E9404321A
:102E50007B018C0168A779A78AA79BA76D8D70E07D
:102E6000882777FD8095982F0E9450319B01AC01F7
:102E7000C801B7010E944D3020E030E040E251E44B
:102E80000E94B53068A779A78AA79BA7DE8C6D2D15
:102E900070E06F777070882777FD8095982F0E947B
:102EA000503120E030E040E853E40E9404327B01DE
:102EB0008C016CA77DA78EA79FA76F8D70E08827D8
:102EC00077FD8095982F0E9450319B01AC01C8017D
:102ED000B7010E944D3020E030E040E251E40E9412
:102EE000B5306CA77DA78EA79FA7D7FE07C0DC01D2
:102EF000CB01B0588CA79DA7AEA7BFA7DF91CF91FC
:102F00001F910F91FF90EF90DF9008950F931F9303
:102F10008C010E940217F80180A591A5A2A5B3A576
:102F2000848B958BA68BB78B84A595A5A6A5B7A5F5
:102F3000808F918FA28FB38F1F910F9108952F9241
:102F40003F924F925F926F927F928F929F92AF9239
:102F5000BF92CF92DF92EF92FF920F931F93DF9376
:102F6000CF93CDB7DEB72E970FB6F894DEBF0FBE66
:102F7000CDBFB82EA92E6B01CB010E9486178B2DD9
:102F80009A2D65EC72E00E94432F48EC242E42E01B
:102F9000342E8B2D9A2DB1010E94C62EB601655F8D
:102FA0007F4F8B2D9A2D0E94D62E3AEC432E32E085
:102FB000532E8B2D9A2DB2010E94C62EF6016289E6
:102FC00073898B2D9A2D0E94552E2CEC622E22E0B7
:102FD000722E8B2D9A2DB3010E94C62EF601208DE4
:102FE000318D428D538D7E010894E11CF11CC70187
:102FF000B60104E610E00E94CA158B2D9A2DB70188
:103000000E94D62EC7010E942B309FEC892E92E0A1
:10301000992E8B2D9A2DB4010E94C62E8B2D9A2DA0
:10302000B1010E94C62EB6016E5F7F4F8B2D9A2D87
:103030000E94D62E8B2D9A2DB2010E94C62EF6012B
:10304000618572858B2D9A2D0E94552E8B2D9A2D80
:10305000B3010E94C62E88E0E82EF12CEC0EFD1E76
:10306000F6012489358946895789C701B6010E942E
:10307000CA158B2D9A2DB7010E94D62EC7010E942A
:103080002B308B2D9A2DB4010E94C62E8B2D9A2D9C
:103090002E960FB6F894DEBF0FBECDBFCF91DF9155
:1030A0001F910F91FF90EF90DF90CF90BF90AF9066
:1030B0009F908F907F906F905F904F903F902F9058
:1030C00008952F923F924F925F926F927F928F92CC
:1030D0009F92AF92BF92CF92DF92EF92FF920F93A7
:1030E0001F93CF93DF936C012B011A01E90172E06A
:1030F000672E712C680E791E65ECA62E62E0B62E46
:10310000C301B5010E94432F5BE0852E912C8C0CEE
:103110009D1CC401B5010E94432FF60151824082DB
:10312000C301B8010E940930F601F286E186C401AC
:10313000B1010E940930F601D38BC28B86E082A3D5
:1031400081E087A3DF91CF911F910F91FF90EF90C6
:10315000DF90CF90BF90AF909F908F907F906F90B7
:103160005F904F903F902F9008950F931F93CF93B0
:10317000DF93EC0182EF96E068E670E00E9459244C
:1031800082EF96E060E00E94DB2482EF96E00E94EE
:103190001E25882319F01092670611C081E08093E4
:1031A000670682EF96E068E670E047E050E00E9434
:1031B0002F2582EF96E00E946324079714F480E0A5
:1031C00065C082EF96E00E946C24082F8F7782956D
:1031D0008F701AE0819FC0011124202F2F70280FBB
:1031E000288382EF96E00E946C24282F22952F706E
:1031F000219F900111248F70820F898382EF96E0C6
:103200000E946C24282F2F7322952F70219F9001EC
:1032100011248F70820F8A8382EF96E00E946C24C3
:10322000282F22952F70219F900111248F70820FDB
:103230008B8382EF96E00E946C24282F22952F70BA
:10324000219F900111248F70820F8C8382EF96E072
:103250000E946C24282F22952F70219F9001112409
:103260008F70820F8D8382EF96E00E946C24282F4E
:103270002F70225E82958F70819FC0011124280FCC
:103280002E83802F8095881F8827881FDF91CF91FC
:103290001F910F9108950F931F938C0163EE72E0BD
:1032A0000E94432FC8011F910F910895EF92FF9242
:1032B0000F931F93DF93CF93CDB7DEB727970FB64A
:1032C000F894DEBF0FBECDBFF82EE92E8B0164E36C
:1032D00073E00E94432FB8016A5F7F4F8F2D9E2DB0
:1032E0000E94D62E8F2D9E2D6EEA73E00E94C62E70
:1032F000F801608171818F2D9E2D0E94552E8F2D9A
:103300009E2D60EB73E00E94C62ECE0101960E94B6
:10331000B518882309F471C08D818A3030F48F2D5F
:103320009E2D64EB73E00E94C62E8F2D9E2D6D8125
:103330000E94862E8F2D9E2D66EB73E00E94C62E76
:103340008E818A3030F48F2D9E2D64EB73E00E94C5
:10335000C62E8F2D9E2D6E810E94862E8F2D9E2D26
:1033600066EB73E00E94C62E6F8170E06E54784F5A
:103370008F2D9E2D0E94552E8F2D9E2D6EEA73E06F
:103380000E94C62E8B818A3030F48F2D9E2D64EBE7
:1033900073E00E94C62E8F2D9E2D6B810E94862E7B
:1033A0008F2D9E2D68EB73E00E94C62E8A818A3095
:1033B00030F48F2D9E2D64EB73E00E94C62E8F2D6E
:1033C0009E2D6A810E94862E8F2D9E2D68EB73E0C4
:1033D0000E94C62E89818A3030F48F2D9E2D64EB99
:1033E00073E00E94C62E8F2D9E2D69810E94862E2D
:1033F0008F2D9E2D6AEB73E00DC0809167068823A8
:1034000029F08F2D9E2D6DEB73E004C08F2D9E2D26
:1034100065EE73E00E94C62E8F2D9E2D27960FB667
:10342000F894DEBF0FBECDBFCF91DF911F910F91FA
:10343000FF90EF90089582EF96E00E943325089563
:10344000AF92BF92CF92DF92EF92FF920F931F93B2
:103450007C015B016A018C010A5F1F4FC80163EEAA
:1034600072E00E94432FF701D182C082C801B501EA
:103470000E9409301F910F91FF90EF90DF90CF9045
:10348000BF90AF9008954F925F926F927F928F920C
:103490009F92AF92BF92CF92DF92EF92FF920F93E3
:1034A0001F93582E492E59016A016BE374E00E9464
:1034B000432FC601B5010E941D319B01AC017B0168
:1034C000852D942DB9010E94552E852D942D6CE3E8
:1034D00074E00E94C62EC601B50120E030E040E055
:1034E00050E00E9400329701442737FD4095542F49
:1034F00038018824992488234CF0CA01B9010E941C
:1035000050319B01AC01C601B50106C0CA01B90129
:103510000E945031A60195010E944C307B018C0124
:10352000C401B3010E944E319B01AC01C801B70137
:103530000E9404320E942231852D942D0E94552E26
:10354000852D942D1F910F91FF90EF90DF90CF90DC
:10355000BF90AF909F908F907F906F905F904F90B3
:103560000895BF92CF92DF92EF92FF920F931F9335
:10357000CF93DF93082FB92EEB016BE374E00E9429
:10358000432F0E9486256B017C011FC0EBA5FCA583
:10359000A081B18114962D913C911597CF01F9012D
:1035A0001995892B91F0ABA5BCA5ED91FC911197D4
:1035B0000680F781E02DCD011995182F802F9B2DC6
:1035C000612F0E94B22E1A3079F00E9486256C1964
:1035D0007D098E099F092DA53EA54FA558A9621703
:1035E00073078407950790F2802F9B2DDF91CF9171
:1035F0001F910F91FF90EF90DF90CF90BF900895B3
:10360000EF92FF920F931F937C018B01CB016EE32E
:1036100074E00E94C62EF70183A594A5B8010E940C
:10362000862C1F910F91FF90EF9008952F923F925B
:103630004F925F926F927F928F929F92AF92BF92C2
:10364000CF92DF92EF92FF920F931F93DF93CF936E
:10365000CDB7DEB72A970FB6F894DEBF0FBECDBF49
:103660003C017E836D8358874F833A872987409634
:103670009C838B832BE3422E24E0522EB2010E94C6
:10368000432F89E1282E312C260C371CC101B201B1
:103690000E94432FF301B296FA83E983CF01B2016E
:1036A0000E94432F8D819E81F301958784878F81AE
:1036B0009885978786878B819C8169857A850E940A
:1036C0000930F301108F078BC101B7010E94093047
:1036D000F301D1A2C0A289819A81B5010E9409306B
:1036E000F30192A681A688E290E0A0E0B0E085A771
:1036F00096A7A7A7B0AB2A960FB6F894DEBF0FBE69
:10370000CDBFCF91DF911F910F91FF90EF90DF9090
:10371000CF90BF90AF909F908F907F906F905F9071
:103720004F903F902F900895CF92DF92EF92FF92AB
:103730000F931F93DF93CF93CDB7DEB7C654D0401E
:103740000FB6F894DEBF0FBECDBF7C0180E090E0E5
:10375000A0E0B0E0F70180879187A287B3878083DC
:103760009183A283B38384839583A683B78383A540
:1037700094A540E855E260E070E00E943B226E01B3
:103780000894C11CD11CC6016BE374E00E94432F56
:103790008E01085F1F4FC80161E474E00E94432F4F
:1037A000C701B8010E94001BC8010E942B308E0186
:1037B000015F1F4FC801B7010E94B11AC601B801CD
:1037C0000E940930C8010E942B30C60161E070E000
:1037D0000E94DE2CFC0180818A35C1F48E010A5ED4
:1037E0001F4FC801B60143E050E028E030E00E94DE
:1037F000C22FC8010E94042D0E945031F70160873A
:10380000718782879387C8010E942B308E01035EE7
:103810001F4FC80163E474E00E94432FC701B80141
:103820000E94001BC8010E942B308E010C5D1F4FAF
:10383000C801B7010E94B11A6E010894C11CD11CC5
:10384000C601B8010E940930C8010E942B30C60190
:1038500061E070E00E94DE2CFC018081843511F56E
:103860008E01055D1F4FC801B60143E050E028E01E
:1038700030E00E94C22FC8010E94042D685E734090
:10388000804090400E9450312DEC3CEC4CEC5DE3CC
:103890000E940432F7016083718382839383C8019D
:1038A0000E942B308E010E5C1F4FC80165E474E04E
:1038B0000E94432FC701B8010E94001BC8010E944B
:1038C0002B308E01075C1F4FC801B7010E94B11A4F
:1038D0006E010894C11CD11CC601B8010E940930B8
:1038E000C8010E942B30C60161E070E00E94DE2C0E
:1038F000FC0180818834F1F48E01005C1F4FC80107
:10390000B60143E050E028E030E00E94C22FC80139
:103910000E94042D0E9450312DEC3CEC4CEC5DE3F8
:103920000E940432F7016483758386839783C801FC
:103930000E942B30F70183A594A50E940023CE019D
:1039400001960E942B30CA5BDF4F0FB6F894DEBFA2
:103950000FBECDBFCF91DF911F910F91FF90EF90E0
:10396000DF90CF9008954F925F926F927F928F92E7
:103970009F92AF92BF92CF92DF92EF92FF920F93FE
:103980001F93DF93CF93CDB7DEB765970FB6F8944B
:10399000DEBF0FBECDBF982E892E5B017A013901A3
:1039A00068016BE374E00E94432F60E1462E512CC6
:1039B0004A0C5B1CC701B2010E94AF2D882309F499
:1039C0008BC0F5018789908D6816790609F084C04F
:1039D000F801E480F580F3E0EF16F1040CF47CC00C
:1039E000C80160E070E00E94DE2CFC01808183341D
:1039F00009F072C0F50183A594A540E855E260E0A6
:103A000070E00E943B228E010F5F1F4FC801B6017C
:103A100042E050E097010E94C22FC501B8010E9408
:103A2000001BC8010E942B3064E170E080E090E050
:103A30000E94942558E0E52EF12CEC0EFD1EC701E6
:103A4000B5010E94B11AC7016BE374E00E94592DC1
:103A50008823C9F5892D982D67E474E00E94C62E4D
:103A6000892D982DB2010E94D62E892D982D69E4BA
:103A700074E00E94C62EF5016789708D892D982DFE
:103A80000E94552E892D982D6EE474E00E94C62E5A
:103A90008E01015F1F4F2C853D8522503040C801AB
:103AA000B70140E050E00E94C22F892D982DB80147
:103AB0000E94D62EC8010E942B30892D982D62E5D8
:103AC00074E00E94C62EF50183A594A50E940023F0
:103AD000CE0108960E942B30892D982D65960FB641
:103AE000F894DEBF0FBECDBFCF91DF911F910F9134
:103AF000FF90EF90DF90CF90BF90AF909F908F900E
:103B00007F906F905F904F9008952F923F924F92C9
:103B10005F926F927F928F929F92AF92BF92CF925D
:103B2000DF92EF92FF920F931F93DF93CF93CDB766
:103B3000DEB765970FB6F894DEBF0FBECDBFD82EA7
:103B4000C92E5B01CB010E94941B8D2D9C2D6BE334
:103B500074E00E94432F17E4212E14E0312E8D2DA6
:103B60009C2DB1010E94C62EB501605F7F4F8D2D47
:103B70009C2D0E94D62EB6E54B2EB4E05B2E8D2DEB
:103B80009C2DB2010E94C62EF5016789708D8D2D86
:103B90009C2D0E94552EA8E56A2EA4E07A2E8D2D2C
:103BA0009C2DB3010E94C62EF501208531854285EA
:103BB00053857E010894E11CF11CC701B50104E6A0
:103BC00010E00E94431A8D2D9C2DB7010E94D62E25
:103BD000C7010E942B30FBE58F2EF4E09F2E8D2D28
:103BE0009C2DB4010E94C62E8D2D9C2DB1010E94EA
:103BF000C62EB501675E7F4F8D2D9C2D0E94D62E5F
:103C00008D2D9C2DB2010E94C62EF50160A171A1DF
:103C10008D2D9C2D0E94552E8D2D9C2DB3010E9423
:103C2000C62EE8E0EE2EF12CEC0EFD1EF5012081F3
:103C3000318142815381C701B5010E94431A8D2D04
:103C40009C2DB7010E94D62EC7010E942B308D2DCE
:103C50009C2DB4010E94C62E8D2D9C2DB1010E9479
:103C6000C62EB5016E5D7F4F8D2D9C2D0E94D62EE8
:103C70008D2D9C2DB2010E94C62EF50161A572A565
:103C80008D2D9C2D0E94552E8D2D9C2DB3010E94B3
:103C9000C62E7FE0E72EF12CEC0EFD1EF5012481EF
:103CA000358146815781C701B5010E94431A8D2D88
:103CB0009C2DB7010E94D62EC7010E942B308D2D5E
:103CC0009C2DB4010E94C62E8D2D9C2D65960FB69D
:103CD000F894DEBF0FBECDBFCF91DF911F910F9142
:103CE000FF90EF90DF90CF90BF90AF909F908F901C
:103CF0007F906F905F904F903F902F900895CF925C
:103D0000DF92EF92FF920F931F93DF93CF93CDB784
:103D1000DEB7A3970FB6F894DEBF0FBECDBF6C0120
:103D2000FC0103A514A50115110531F0C8010E947D
:103D30002022C8010E9446308FE190E00E94493065
:103D4000182F092FF6016485468520E00E942B2458
:103D5000F60113A704A7812F902F40E855E260E0F9
:103D600070E00E943B2264E670E080E090E00E94F8
:103D700094257E010894E11CF11CC7016BE374E0FB
:103D80000E94432F8E01085F1F4FC8016DE574E04C
:103D90000E94432FC601B8010E94001BC8010E9467
:103DA0002B308E01015F1F4FC801B6010E94B11A6E
:103DB000C701B8010E940930C8010E942B308E0152
:103DC0000A5E1F4FC80161E674E00E94432FC601DE
:103DD000B8010E94001BC8010E942B308E01035EB7
:103DE0001F4FC801B6010E94B11AC701B8010E9455
:103DF0000930C8010E942B30F60183A594A50E94CA
:103E00000023C7010E942B30A3960FB6F894DEBFA3
:103E10000FBECDBFCF91DF911F910F91FF90EF901B
:103E2000DF90CF900895AF92BF92CF92DF92EF9242
:103E3000FF920F931F937C016B015A018C010A5F63
:103E40001F4FC80166E674E00E94432FC801B60107
:103E50000E940930F701B686A5861F910F91FF9049
:103E6000EF90DF90CF90BF90AF900895FC01138644
:103E70001586148687E090E012863197009711F03E
:103E80000197FACF0895DC0180E00BC0E82FF0E045
:103E90008D9190E0E827F927EC51FF4FE4916150B4
:103EA0008E2F662399F70895DF92EF92FF920F937A
:103EB0001F93FC01E08001811281F894F801818157
:103EC0008E2981838281DE2CD0948D21828383E0B0
:103ED00090E00E94ED25F80181818D2181838AE0A7
:103EE00090E00E94ED25F8010081789485E390E050
:103EF0000E94ED2580E010E0FF240E211F21012B00
:103F000009F081E01F910F91FF90EF90DF900895ED
:103F1000EF92FF920F931F93CF93DF937C0101E009
:103F200010E0C0E0D0E0C7010E94541F8111102BA7
:103F3000000F2196C830D105B1F7812FDF91CF91C5
:103F40001F910F91FF90EF9008951F93CF93DF93F0
:103F5000FC011081C181D281912F909560FF12C028
:103F6000F8948A8189238A838981812B89838AE0D5
:103F700090E00E94ED258A81812B8A83789487E3E3
:103F800090E011C0F8948A8189238A838981812BEA
:103F9000898381E490E00E94ED258A81812B8A83C8
:103FA000789485E090E00E94ED25DF91CF911F91FC
:103FB0000895CF92DF92EF92FF920F931F93CF93CA
:103FC000DF938C01E42EFF24F394C0E0D0E0C62EF2
:103FD000DD2460E08F2D90E08C219D21892B09F05C
:103FE00061E0C8010E94A51FFF0C2196C830D105D1
:103FF00081F7EE20A9F4F894D8011196ED91FC9187
:10400000129791818C918095982391831196ED91CF
:10401000FC91129792818C91809598239283789449
:10402000DF91CF911F910F91FF90EF90DF90CF9094
:104030000895EF92FF920F931F93CF93DF938C011C
:104040007B0165E540E00E94D91FC0E0D0E0F701A8
:10405000EC0FFD1FC801608140E00E94D91F21962E
:10406000C830D105A1F7DF91CF911F910F91FF903B
:10407000EF900895DF92EF92FF920F931F93CF93EB
:10408000DF93FC010081C181D281F8948981D02E17
:10409000D0948D21898378941DE7E02EFF24115060
:1040A00059F182E090E00E94ED25888190E08E2118
:1040B0009F21892BA1F3F8948A818D218A8389819C
:1040C000802B8983789480EE91E00E94ED25F8940E
:1040D00089818D21898386E490E00E94ED25888185
:1040E00010E090E0E822F922EF2809F411E078943A
:1040F0008AE991E00E94ED25812FDF91CF911F91F8
:104100000F91FF90EF90DF900895AF92BF92DF92F2
:10411000EF92FF920F931F93CF93DF93EC015B011C
:104120008D85882309F061C0CE010E943A20882342
:1041300029F41B861D861C8690E06BC0CE0160EFC3
:1041400040E00E94D91F01E0DD24EE24FF24F39417
:10415000CE010E94541F182FCE010E94541F11300F
:1041600019F48130E1F439C0181709F58B85081767
:1041700070F460E0FE01EE0DF11D838190E02F2DC3
:1041800030E082239323181619064CF003C060E038
:10419000081729F0093008F04CC00C874AC0FE010E
:1041A000EE0DF11D83818F29838361E009C0612FAA
:1041B000FE01EE0DF11D9F2D909583818923838350
:1041C000CE010E94A51F0F5FFF0C19F4E394FF249A
:1041D000F39487E08E1508F0BBCF013430F0DB8616
:1041E000DD2011F581E08D871FC01B861D861C8692
:1041F00090E0DE0120E030E0F501E20FF31F1396BE
:104200008C91139780832F5F3F4F11962830310593
:1042100099F7892FDF91CF911F910F91FF90EF9028
:10422000DF90BF90AF9008958B818823F1F291E0E9
:10423000E0CFD02EBDCFFF920F931F938C01F62EAF
:10424000862F60E00E948D268F2D90E0FC01E858BB
:10425000FD4FE491D801EC938E5C9D4FFC0164917D
:10426000E62FF0E0EE0FFF1FE85EFD4F8591949181
:1042700012969C938E9311971B961C921B971D96DA
:104280001C921D971C961C92F80187E090E0128604
:104290003197009711F00197FACF1F910F91FF907E
:1042A0000895CF93DF93EC018A8D9B8D892B61F16B
:1042B000A0916806B0916906AC17BD0729F1109767
:1042C00071F05396ED91FC915497908155968C9195
:1042D00080958923808310926906109268068E8DDE
:1042E0008E7F8E8F1092AA068091AA068093AB06CD
:1042F000D0936906C0936806EB89FC8980819D890B
:10430000892B808381E001C080E0DF91CF91089507
:104310001F920F920FB60F920BB60F9211242F938C
:104320003F934F936F937F938F939F93AF93BF93DD
:10433000EF93FF93A0916806B0916906109709F476
:104340006DC05E968C915E971E96ED91FC911F97C5
:104350001D969C911D9781FF05C08081892309F4DA
:104360005DC004C08081892309F058C05396ED9147
:10437000FC915497908155968C91559780958923FF
:10438000808356968D919C9157970197F1F7589697
:104390006D917C9159971E96ED91FC911F971D96FA
:1043A0003C911D9740E028E0CB010197F1F746953D
:1043B0008081832309F040682150B1F75E968C918B
:1043C0005E9781FD40958091AA06282F30E02F5FEF
:1043D0003F4F2F7330708091AB06821749F0E09108
:1043E000AA06F0E0E659F94F40832093AA0607C0D9
:1043F0005E968C915E9781605E968C935E975A96DE
:104400008D919C915B970197F1F75396ED91FC91FB
:104410005497808155969C91892B8083FF91EF91D1
:10442000BF91AF919F918F917F916F914F913F91EC
:104430002F910F900BBE0F900FBE0F901F901895ED
:10444000FC018CE794E091838083A0916806B09191
:104450006906AE17BF0771F45396ED91FC9154971E
:10446000908155968C91809589238083109269065E
:10447000109268060895CF93DF93EC019A01AB0187
:104480001D8E1C8E1B8E1A8E198E188E1F8A1E8AE8
:1044900060E079E08DE390E00E94B0322430310595
:1044A00018F481E090E002C0C90103979D8F8C8FC2
:1044B0009C85892F8A50843038F08852843020F0CF
:1044C0009E53983008F093C0C901969587958F3117
:1044D000910518F481E090E001C04E979F8B8E8B80
:1044E0002330310518F481E090E002C0C901029741
:1044F000998F888FC901880F991F820F931F9695F6
:104500008795969587958031910518F481E090E024
:1045100001C00F979B8F8A8F9C85392F3A5034307A
:1045200090F0892F8253843070F08C50883008F4DA
:1045300064C0A0E0B0E0883018F0E0E0F0E007C030
:10454000E8E6F0E004C0E8E6F0E0A8E6B0E02081AC
:10455000343048F0892F8253843028F09E539830AD
:1045600010F484E001C081E0822B8C939C85892F1C
:104570008A50843060F08852843048F09E539830DE
:1045800018F080E090E005C08DE690E002C08BE678
:1045900090E09C8B8B8B2C85822F8A50843020F46A
:1045A00030E02650304015C0223311F488E01AC0A4
:1045B000233311F484E016C0243311F482E012C0D6
:1045C000253379F0822F8E53883058F430E02E5303
:1045D000304081E090E002C0880F991F2A95E2F7F1
:1045E00001C081E08D8B8C8D9D8D0197F1F7CE01FF
:1045F0000E945121DF91CF910895A8E6B0E09BCFB2
:10460000A0916806B0916906A817B90771F453968E
:10461000ED91FC915497908155968C9180958923CA
:1046200080831092690610926806089520916806AA
:10463000309169062817390731F49091AB068091C3
:10464000AA06981719F42FEF3FEF0FC0E091AB06C1
:10465000F0E0E659F94F20818091AB0690E0019699
:104660008F7390708093AB0630E0C901089520915C
:104670006806309169062817390719F020E030E004
:104680000EC08091AA062091AB0690E0805C9F4FFF
:10469000821B910960E470E00E947B329C01C90199
:1046A0000895FF920F931F93DC015C964D915C91EE
:1046B0005D974115510549F481E090E013969C9374
:1046C0008E93129720E030E041C05196ED91FC911D
:1046D000529750961C915097012F0095FFB65E9609
:1046E0002C915E972695217011F021E06095F89449
:1046F000222319F08081812B02C080818023808356
:10470000CA010197F1F738E070E060FF03C08081D3
:10471000812B02C0808180238083CA010197F1F739
:10472000315019F075956795EFCF222319F08081EC
:10473000802302C08081812B8083FFBE5C968D9197
:104740009C915D970197F1F721E030E0C9011F913D
:104750000F91FF90089520916806309169062817FF
:10476000390749F49FB7F8941092AA068091AA06D7
:104770008093AB069FBF089520916806309169062B
:104780002817390731F49091AB068091AA06981743
:1047900019F42FEF3FEF08C0E091AB06F0E0E659C7
:1047A000F94F8081282F30E0C90108951F93CF93DE
:1047B000DF93EC01162F862F60E00E948D268E8DF0
:1047C00081FD04C0812F61E00E9440271C87212FBA
:1047D00030E0C90188589D4FFC0184918D872E5C83
:1047E0003D4FF9016491E62FF0E0EE0FFF1FE85E08
:1047F000FD4F859194919F878E87DF91CF911F9177
:1048000008951F93CF93DF93EC01162F60E08E8DF8
:1048100081FF61E0812F0E944027812F61E00E948B
:104820008D26212F30E0C90188589D4FFC018491CD
:10483000888B2E5C3D4FF9016491E62FF0E0EE0F7E
:10484000FF1FE250FE4F859194919A8B898BDF91E7
:10485000CF911F910895FF920F931F938C01F62E15
:10486000FC011382128288EE93E0A0E0B0E0848322
:104870009583A683B7838CE794E091838083178A1E
:10488000168A118E108E138E128E158E148E868DB2
:104890002170220F8C7F822B868FC801642F0E948B
:1048A0000124C8016F2D0E94D6231F910F91FF9004
:1048B000089581E08093F1066093CE061092EF0692
:1048C0001092F00608952091CD0630E08091CC063C
:1048D000281B3109C90108954091CC068091CD066D
:1048E000481718F02FEF3FEF0AC0E42FF0E0E4552F
:1048F000F94F8081282F30E04F5F4093CC06C901EB
:104900000895E091CC068091CD06E81718F0EFEFFE
:10491000FFEF06C0F0E0E455F94F8081E82FF0E0AA
:10492000CF01089508951092F5061092F40688EECE
:1049300093E0A0E0B0E08093F6069093F706A09392
:10494000F806B093F9068CE894E09093F306809310
:10495000F2060895CF92DF92EF92FF920F931F938A
:10496000CF93DF937C016B018A018091F10688234C
:10497000A1F0C0E0D0E00DC0D701ED91FC91D601CF
:10498000AC0FBD1F0190F081E02DC7016C9119950E
:104990002196C017D10780F304C0CB01642F0E9479
:1049A000F504C801DF91CF911F910F91FF90EF9017
:1049B000DF90CF900895DF93CF930F92CDB7DEB7FE
:1049C000FC0169838091F1068823C9F08091F0068B
:1049D000803238F081E090E09383828320E030E001
:1049E00015C08091EF06E82FF0E0E153F94F99816F
:1049F00090838F5F8093EF068093F00605C0CE0111
:104A0000019661E00E94F50421E030E0C9010F90B9
:104A1000CF91DF9108950F93062F8091CE066FEC12
:104A200076E04091F00621E00E94A0041092EF068B
:104A30001092F0061092F1060F91089561E00E9425
:104A40000B250895413208F040E2862F6CEA76E0AB
:104A50000E9457041092CC068093CD06089521E061
:104A60000E94222508951092CC061092CD06109235
:104A7000EF061092F0060E94A50608951F920F926D
:104A80000FB60F9211242F933F938F939F93AF9361
:104A9000BF938091020790910307A0910407B09102
:104AA0000507309106070196A11DB11D232F2D5F2B
:104AB0002D3720F02D570196A11DB11D209306071B
:104AC0008093020790930307A0930407B093050710
:104AD0008091FE069091FF06A0910007B09101071A
:104AE0000196A11DB11D8093FE069093FF06A09331
:104AF0000007B0930107BF91AF919F918F913F91B4
:104B00002F910F900FBE0F901F9018958FB7F894AC
:104B10002091020730910307409104075091050747
:104B20008FBFB901CA0108959B01AC017FB7F8940A
:104B30008091FE069091FF06A0910007B0910107B9
:104B400066B5A89B05C06F3F19F00196A11DB11D68
:104B50007FBFBA2FA92F982F8827860F911DA11DDF
:104B6000B11D62E0880F991FAA1FBB1F6A95D1F77C
:104B7000BC012DC0FFB7F8948091FE069091FF060E
:104B8000A0910007B0910107E6B5A89B05C0EF3FD3
:104B900019F00196A11DB11DFFBFBA2FA92F982FA3
:104BA00088278E0F911DA11DB11DE2E0880F991F6E
:104BB000AA1FBB1FEA95D1F7861B970B885E93400F
:104BC000C8F2215030404040504068517C4F211580
:104BD00031054105510571F60895019739F0880FA7
:104BE000991F880F991F02970197F1F708957894FC
:104BF00084B5826084BD84B5816084BD85B58260E2
:104C000085BD85B5816085BDEEE6F0E0808181607F
:104C10008083E1E8F0E0108280818260808380817F
:104C200081608083E0E8F0E0808181608083E1EB57
:104C3000F0E0808184608083E0EBF0E0808181603F
:104C40008083E1E9F0E080818260808380818160FF
:104C50008083E0E9F0E0808181608083E1EAF0E038
:104C6000808182608083808181608083E0EAF0E0DF
:104C7000808181608083E1E2F1E0808182608083D5
:104C8000808181608083E0E2F1E0808181608083C7
:104C9000EAE7F0E0808184608083808182608083A5
:104CA0008081816080838081806880831092C100D0
:104CB0000895382F863308F0365320917B00832FD8
:104CC00086958695869590E08170907043E0880F78
:104CD000991F4A95E1F7277F282B20937B00377097
:104CE000809177048295880F880F807C832B809336
:104CF0007C0080917A00806480937A0080917A00B1
:104D000086FDFCCF2091780040917900942F80E0BF
:104D100030E0282B392BC9010895CF93DF93482F1A
:104D200050E0CA0188589D4FFC0134914E5C5D4FA4
:104D3000FA018491882369F190E0880F991FFC01A2
:104D4000EC51FE4FA591B491FC01E250FE4FC5918C
:104D5000D491662351F42FB7F8948C91932F9095AA
:104D600089238C93888189230BC0623061F42FB72B
:104D7000F8948C91932F909589238C938881832B21
:104D800088832FBF06C09FB7F8948C91832B8C9398
:104D90009FBFDF91CF910895893009F449C08A30CF
:104DA000A0F4843051F1853040F4823079F18330C1
:104DB00000F5813009F063C026C0873079F1883072
:104DC00098F5863009F05BC025C08D3009F442C0EB
:104DD0008E3028F48B30B1F18C30C0F52DC080318D
:104DE00009F442C0813109F445C08F3009F047C051
:104DF00037C0809180008F7703C0809180008F7DC5
:104E000080938000089584B58F7702C084B58F7D2C
:104E100084BD08958091B0008F7703C08091B00069
:104E20008F7D8093B0000895809190008F7707C0A8
:104E3000809190008F7D03C080919000877F809348
:104E4000900008958091A0008F7707C08091A00006
:104E50008F7D03C08091A000877F8093A00008957C
:104E6000809120018F7703C0809120018F7D8093F6
:104E70002001089580912001877F8093200108956B
:104E8000FF920F931F93F62E482F50E0CA018254D1
:104E90009D4FFC012491CA0188589D4FFC0114913B
:104EA0004E5C5D4FFA0104910023C9F0222319F0F2
:104EB000822F0E94CC26E02FF0E0EE0FFF1FE25081
:104EC000FE4FA591B4919FB7F894FF2021F48C91E7
:104ED0001095812302C08C91812B8C939FBF1F91D1
:104EE0000F91FF9008950F931F93482F50E0CA0130
:104EF00082549D4FFC012491CA0188589D4FFC01AA
:104F000004914E5C5D4FFA011491112319F420E0D5
:104F100030E015C0222319F0822F0E94CC26812F69
:104F200090E0880F991F885E9D4FFC01A591B49178
:104F30008C9120E030E0802311F021E030E0C901C5
:104F40001F910F91089508951F920F920FB60F921F
:104F50000BB60F9211242F933F934F938F939F93F0
:104F6000EF93FF934091C600209147073091480787
:104F70002F5F3F4F2F7330708091490790914A0700
:104F80002817390759F0E0914707F0914807E95F82
:104F9000F84F40833093480720934707FF91EF91E4
:104FA0009F918F914F913F912F910F900BBE0F903A
:104FB0000FBE0F901F90189508951F920F920FB675
:104FC0000F920BB60F9211242F933F934F938F9311
:104FD0009F93EF93FF934091CE002091CF073091A4
:104FE000D0072F5F3F4F2F7330708091D107909182
:104FF000D2072817390759F0E091CF07F091D00771
:10500000E157F84F40833093D0072093CF07FF91AB
:10501000EF919F918F914F913F912F910F900BBEE8
:105020000F900FBE0F901F90189508951F920F922A
:105030000FB60F920BB60F9211242F933F934F93FD
:105040008F939F93EF93FF934091D6002091570841
:10505000309158082F5F3F4F2F733070809159085F
:1050600090915A082817390759F0E0915708F091A4
:105070005808E95EF74F408330935808209357084B
:10508000FF91EF919F918F914F913F912F910F90B1
:105090000BBE0F900FBE0F901F90189508951F9292
:1050A0000F920FB60F920BB60F9211242F933F93CE
:1050B0004F938F939F93EF93FF93409136012091ED
:1050C000DF083091E0082F5F3F4F2F7330708091E1
:1050D000E1089091E2082817390759F0E091DF08BC
:1050E000F091E008E156F74F40833093E0082093B9
:1050F000DF08FF91EF919F918F914F913F912F91F9
:105100000F900BBE0F900FBE0F901F901895E0915F
:105110003309F0913409E05CFF4F81919191208136
:105120003181821B930B8F739070892B11F00E9439
:10513000A327E0915209F0915309E05CFF4F819160
:10514000919120813181821B930B8F739070892BF9
:1051500011F00E94DC27E0917109F0917209E05C86
:10516000FF4F8191919120813181821B930B8F732D
:105170009070892B11F00E941528E0919009F09110
:105180009109E05CFF4F8191919120813181821BD7
:10519000930B8F739070892B11F00E944E28089505
:1051A0001F920F920FB60F920BB60F9211242F93EE
:1051B0003F938F939F93EF93FF9320918B073091B1
:1051C0008C0780918D0790918E072817390731F44D
:1051D0008091C1008F7D8093C10014C0E0918D0744
:1051E000F0918E07E55BF84F208180918D079091BB
:1051F0008E0701968F73907090938E0780938D0722
:105200002093C600FF91EF919F918F913F912F9135
:105210000F900BBE0F900FBE0F901F9018951F920E
:105220000F920FB60F920BB60F9211242F933F934C
:105230008F939F93EF93FF9320911308309114085D
:1052400080911508909116082817390731F480913C
:10525000C9008F7D8093C90014C0E0911508F091BA
:105260001608ED52F84F208180911508909116088C
:1052700001968F7390709093160880931508209371
:10528000CE00FF91EF919F918F913F912F910F90C1
:105290000BBE0F900FBE0F901F9018951F920F928C
:1052A0000FB60F920BB60F9211242F933F938F934B
:1052B0009F93EF93FF9320919B0830919C088091DE
:1052C0009D0890919E082817390731F48091D100EC
:1052D0008F7D8093D10014C0E0919D08F0919E08CD
:1052E000E55AF74F208180919D0890919E08019684
:1052F0008F73907090939E0880939D082093D600A2
:10530000FF91EF919F918F913F912F910F900BBE45
:105310000F900FBE0F901F9018951F920F920FB60F
:105320000F920BB60F9211242F933F938F939F935D
:10533000EF93FF932091230930912409809125094F
:10534000909126092817390731F4809131018F7D1A
:105350008093310114C0E0912509F0912609ED51A7
:10536000F74F2081809125099091260901968F732E
:105370009070909326098093250920933601FF9120
:10538000EF919F918F913F912F910F900BBE0F90B6
:105390000FBE0F901F901895AF92BF92DF92EF92C1
:1053A000FF920F931F93CF93DF93EC017A018B0150
:1053B000DD24403081EE580780E0680780E0780700
:1053C00011F0DD24D39491E0A92EB12CEC89FD8954
:1053D000DD2069F0C5010E8C02C0880F991F0A9468
:1053E000E2F7808360E079E08DE390E005C0108211
:1053F00060E874E88EE190E0A80197010E948E3287
:10540000215030404040504056954795379527955C
:1054100080E12030380720F0DD2011F0DD24D6CFE8
:10542000E889F9893083EA89FB892083EE89FF893D
:10543000408121E030E0C9010A8C02C0880F991F29
:105440000A94E2F7482B4083EE89FF894081C90125
:105450000B8C02C0880F991F0A94E2F7482B4083F7
:10546000EE89FF894081C9010C8C02C0880F991F09
:105470000A94E2F7482B4083EE89FF8980810D8CE6
:1054800002C0220F331F0A94E2F7209528232083BD
:10549000DF91CF911F910F91FF90EF90DF90BF9020
:1054A000AF900895DC011C96ED91FC911D97E05C96
:1054B000FF4F2191319180819181281B390B2F73EE
:1054C0003070C9010895DC011C96ED91FC911D9787
:1054D000E05CFF4F20813181E054F040DF01AE5BA2
:1054E000BF4F8D919C9111972817390719F42FEF11
:1054F0003FEF07C08D919C91E80FF91F8081282F05
:1055000030E0C9010895DC011C96ED91FC911D97D6
:10551000E05CFF4F20813181E054F040DF01AE5B61
:10552000BF4F8D919C9111972817390719F42FEFD0
:105530003FEF10C08D919C911197E80FF91F2081CA
:105540008D919C91119701968F73907011969C93F9
:105550008E9330E0C9010895FC0186859785DC01B2
:10556000A05CBF4FFC01EE5BFF4F2D913C9111976A
:105570008081918128173907C1F70895CF93DF9370
:10558000EC01EE85FF85E05CFF4F20813181E05426
:10559000F0402F5F3F4F2F733070DF01AE5BBF4F86
:1055A0008D919C91119728173907D1F3E05CFF4F3B
:1055B00080819181E054F040E80FF91F6083EE850F
:1055C000FF85E05CFF4F31832083EE89FF892081D6
:1055D00081E090E00D8C02C0880F991F0A94E2F7D9
:1055E000282B208381E090E0DF91CF9108951F93D5
:1055F00010922A091092290928EE33E040E050E089
:1056000020932B0930932C0940932D0950932E0998
:105610006CE974E0709328096093270987E097E0AC
:1056200090933409809333098BE497E09093360983
:105630008093350985EC90E0909338098093370981
:1056400084EC90E090933A098093390980EC90E0E3
:1056500090933C0980933B0981EC90E090933E0944
:1056600080933D0986EC90E09093400980933F0938
:1056700014E010934109B3E0B0934209A7E0A0936E
:105680004309F5E0F0934409E1E0E0934509109205
:1056900049091092480920934A0930934B094093D5
:1056A0004C0950934D0970934709609346098FE860
:1056B00097E0909353098093520983ED97E090937C
:1056C0005509809354098DEC90E09093570980938D
:1056D00056098CEC90E0909359098093580988EC16
:1056E00090E090935B0980935A0989EC90E0909345
:1056F0005D0980935C098EEC90E090935F09809344
:105700005E0910936009B0936109A0936209F09358
:105710006309E09364091092680910926709209365
:10572000690930936A0940936B0950936C0970932F
:1057300066096093650987E198E090937209809308
:1057400071098BE598E0909374098093730985ED56
:1057500090E0909376098093750984ED90E09093A2
:1057600078098093770980ED90E090937A0980938F
:10577000790981ED90E090937C0980937B0986ED17
:1057800090E090937E0980937D0910937F09B093F8
:105790008009A0938109F0938209E0938309109214
:1057A00087091092860920938809309389094093CC
:1057B0008A0950938B0970938509609384098FE956
:1057C00098E0909391098093900983EE98E09093EC
:1057D00093098093920985E391E0909395098093D2
:1057E000940984E391E0909397098093960980E36C
:1057F00091E0909399098093980981E391E09093C7
:105800009B0980939A0986E391E090939D09809388
:105810009C0910939E09B0939F09A093A009F0934F
:10582000A109E093A2091F910895CF92DF92EF9210
:10583000FF920F931F93CF93DF937C016B018A013B
:10584000C0E0D0E00FC0D6016D916D01D701ED91A0
:10585000FC910190F081E02DC7011995C80FD91F67
:10586000015010400115110571F7CE01DF91CF9164
:105870001F910F91FF90EF90DF90CF900895EF92DE
:10588000FF920F931F938C01DC01ED91FC9101902D
:10589000F081E02D6DE019957C01D801ED91FC912E
:1058A0000190F081E02DC8016AE019959C012E0D50
:1058B0003F1DC9011F910F91FF90EF900895CF9365
:1058C000DF93DB010D900020E9F71197A61BB70BC2
:1058D000EC01E881F9810280F381E02DAD01199599
:1058E000DF91CF910895EF92FF920F931F937C0168
:1058F0000E945F2C8C01C7010E943F2C080F191FCA
:10590000C8011F910F91FF90EF900895AF92BF9241
:10591000CF92DF92EF92FF920F931F93CF93DF937B
:105920005C016B01EE24FF24C0E0D0E010C0D50183
:10593000ED91FC9100811181C601BE010E94F32C02
:10594000682FC501F8011995E80EF91E2196F60198
:1059500084819581C817D90750F3C701DF91CF9192
:105960001F910F91FF90EF90DF90CF90BF90AF907D
:105970000895EF92FF920F931F937C010E94862C53
:105980008C01C7010E943F2C9C01200F311FC901CF
:105990001F910F91FF90EF900895FC0184819581F4
:1059A0006817790748F40190F081E02D309721F0D5
:1059B000E60FF71F8081089580E00895FC019B01A8
:1059C000848195816817790728F460817181611558
:1059D000710529F41092A30963EA79E002C0620F0D
:1059E000731FCB010895FC018481958168177907A5
:1059F00048F40190F081E02D309721F0E60FF71F79
:105A00008081089580E00895FC0180819181009754
:105A100029F420E030E040E050E004C00E948C0314
:105A20009B01AC01B901CA010895CF93DF93FC013A
:105A3000DB01848195814817590760F4C081D181C9
:105A40006D917C91CE01840F951F0E94D7039C011C
:105A5000009719F42FEF3FEF02C02C1B3D0BC9013B
:105A6000DF91CF91089540E050E00E94152D0895F8
:105A7000CF93DF93FC01848195814817590758F42F
:105A8000C081D181CE01840F951F70E00E94BC03BC
:105A90009C01009719F42FEF3FEF02C02C1B3D0B28
:105AA000C901DF91CF91089540E050E00E94382D68
:105AB0000895DC01FB0114968D919C911597892B1B
:105AC00031F461157105A9F090E0808108C00D9056
:105AD000BC91A02D6115710529F490E08C9188236B
