:100000000C94F5000C9416010C9416010C94160136
:100010000C9416010C9416010C9416010C94160104
:100020000C9416010C9416010C9416010C941601F4
:100030000C9416010C9416010C9416010C941601E4
:100040000C9416010C9416010C9416010C941601D4
:100050000C9416010C9416010C9416010C943701A3
:100060000C9416010C9416010C9416010C941601B4
:100070000C9416010C9416010C9416010C941601A4
:100080000C9416010C9416010C9416010C94160194
:100090000C9416010C9416010C9416010C94160184
:1000A0000C9416010C9416010C9416010C94160174
:1000B0000C9416010C9416010C9416010C94160164
:1000C0000C9416010C9416010C9416010C94160154
:1000D0000C9416010C9416010C9416010C94160144
:1000E0000C9416010000090A02080B0C0D07060308
:1000F00004010000000000000000000000000000FB
:1001000000000000000000000000000000000000EF
:1001100011100F00000000000000000000000000AF
:100120000000000000000000000001021020200874
:100130000810204010204080020102010804020142
:1001400001020408102040808040201008040201B1
:10015000800402018040201008040201080402010A
:100160000102040810204080010204081020408091
:1001700005050505070508080808020202020A0A23
:100180000808040404040101010101010101030341
:10019000030303030303040707070C0C0C0C0C0CEC
:1001A0000C0C0202020206060606060606060B0BE9
:1001B0000B0B0B0B0B0B00002200250028002B0063
:1001C0002E003100340002010000050108010B017E
:1001D00000002100240027002A002D0030003300F9
:1001E00001010000040107010A0111241FBECFEF25
:1001F000D1E2DEBFCDBF00E00CBF12E0A0E0B2E074
:10020000EAE3F6E000E00BBF02C007900D92A230D7
:10021000B107D9F712E0A2E0B2E001C01D92AB3005
:10022000B107E1F70E940E030C941B030C9400002D
:1002300061E0809100020C949F02CF93DF93C0E0B5
:10024000D2E060E088810E94D70260E075EC8FEF19
:100250009FEF0E94AB0161E088810E94D70260E0BD
:1002600077E98FEF9FEFDF91CF910C94AB011F9255
:100270000F920FB60F9211242F933F938F939F935A
:10028000AF93BF938091020290910302A091040268
:10029000B091050230910A02232F2D5F2D3720F4F3
:1002A0000196A11DB11D05C0232F2A570296A11D3D
:1002B000B11D20930A028093020290930302A0933F
:1002C0000402B09305028091060290910702A0916A
:1002D0000802B09109020196A11DB11D809306028A
:1002E00090930702A0930802B0930902BF91AF91C7
:1002F0009F918F913F912F910F900FBE0F901F9064
:1003000018950F931F939FB7F894009106021091D0
:100310000702209108023091090286B5A89B06C009
:100320008F3F21F00F5F1F4F2F4F3F4F9FBF322F47
:10033000212F102F0027080F111D211D311D42E014
:10034000000F111F221F331F4A95D1F7B801C901B1
:100350001F910F910895CF92DF92EF92FF92CF936A
:10036000DF936B017C010E948101EB010EC00E94B2
:1003700081016C1B7D0B683E734038F081E0C81A28
:10038000D108E108F108C851DC4FC114D104E104DF
:10039000F10469F7DF91CF91FF90EF90DF90CF905C
:1003A0000895789484B5826084BD84B5816084BDED
:1003B00085B5826085BD85B5816085BDEEE6F0E0DE
:1003C000808181608083E1E8F0E01082808182603A
:1003D0008083808181608083E0E8F0E080818160BB
:1003E0008083E1EBF0E0808184608083E0EBF0E0EB
:1003F000808181608083E1E9F0E080818260808398
:10040000808181608083E0E9F0E080818160808389
:10041000E1EAF0E080818260808380818160808376
:10042000E0EAF0E0808181608083E1E2F1E08081B8
:1004300082608083808181608083E0E2F1E080815E
:1004400081608083EAE7F0E080818460808380813E
:1004500082608083808181608083808180688083E6
:100460001092C1000895893009F443C088F48430A3
:1004700029F138F4823059F1E8F4813009F05EC096
:1004800023C0873061F188F5863009F057C023C05A
:100490008D3009F440C020F48B30A9F1C0F52DC097
:1004A000803109F442C0813109F443C08F3009F032
:1004B00045C037C0809180008F7703C08091800055
:1004C0008F7D80938000089584B58F7702C084B5B6
:1004D0008F7D84BD08958091B0008F7703C0809197
:1004E000B0008F7D8093B0000895809190008F7749
:1004F00007C0809190008F7D03C080919000877F1E
:100500008093900008958091A0008F7707C080911C
:10051000A0008F7D03C08091A000877F8093A00002
:100520000895809120018F7707C0809120018F7DF1
:1005300003C080912001877F809320010895CF938D
:10054000DF9390E0FC01E65DFE4F4491FC01E05931
:10055000FE4F8491882341F190E0880F991FFC01A0
:10056000E053FE4F25913491D9018A549E4FFC01EE
:1005700085919491C82FD92F9FB7F8948C916111D0
:1005800006C0409584238C938881842308C0623000
:1005900041F4242F209582238C938881842B888397
:1005A00002C0842B8C939FBFDF91CF9108950F934E
:1005B0001F93CF93DF931F92CDB7DEB7282F30E084
:1005C000F901EC51FF4F8491F901E65DFE4F149162
:1005D000F901E059FE4F04910023D1F0882321F066
:1005E00069830E9433026981E02FF0E0EE0FFF1F64
:1005F000EA54FE4F85919491DC019FB7F8948C9159
:10060000611103C01095812301C0812B8C939FBF82
:100610000F90DF91CF911F910F9108950E94D1010A
:100620000E941801C0E0D0E00E941D012097E1F374
:0A0630000E940000F9CFF894FFCFFC
:02063A000800B6
:00000001FF
